{
  "contractName": "FileStorage",
  "abi": [
    {
      "inputs": [
        {
          "internalType": "uint256",
          "name": "",
          "type": "uint256"
        }
      ],
      "name": "files",
      "outputs": [
        {
          "internalType": "string",
          "name": "ipfsHash",
          "type": "string"
        },
        {
          "internalType": "address",
          "name": "owner",
          "type": "address"
        }
      ],
      "stateMutability": "view",
      "type": "function"
    },
    {
      "inputs": [
        {
          "internalType": "string",
          "name": "_hash",
          "type": "string"
        }
      ],
      "name": "uploadFile",
      "outputs": [],
      "stateMutability": "nonpayable",
      "type": "function"
    },
    {
      "inputs": [
        {
          "internalType": "uint256",
          "name": "index",
          "type": "uint256"
        }
      ],
      "name": "getFile",
      "outputs": [
        {
          "internalType": "string",
          "name": "",
          "type": "string"
        },
        {
          "internalType": "address",
          "name": "",
          "type": "address"
        }
      ],
      "stateMutability": "view",
      "type": "function"
    },
    {
      "inputs": [],
      "name": "getCount",
      "outputs": [
        {
          "internalType": "uint256",
          "name": "",
          "type": "uint256"
        }
      ],
      "stateMutability": "view",
      "type": "function"
    }
  ],
  "bytecode": "0x608060405234801561000f575f80fd5b5061099f8061001d5f395ff3fe608060405234801561000f575f80fd5b506004361061004a575f3560e01c80632bfda3131461004e578063a87d942c1461007f578063e37ffc301461009d578063f4c714b4146100b9575b5f80fd5b610068600480360381019061006391906103b6565b6100ea565b6040516100769291906104aa565b60405180910390f35b6100876101e3565b60405161009491906104e7565b60405180910390f35b6100b760048036038101906100b2919061062c565b6101ee565b005b6100d360048036038101906100ce91906103b6565b61029f565b6040516100e19291906104aa565b60405180910390f35b60605f808381548110610100576100ff610673565b5b905f5260205f2090600202015f015f848154811061012157610120610673565b5b905f5260205f2090600202016001015f9054906101000a900473ffffffffffffffffffffffffffffffffffffffff1681805461015c906106cd565b80601f0160208091040260200160405190810160405280929190818152602001828054610188906106cd565b80156101d35780601f106101aa576101008083540402835291602001916101d3565b820191905f5260205f20905b8154815290600101906020018083116101b657829003601f168201915b5050505050915091509150915091565b5f8080549050905090565b5f60405180604001604052808381526020013373ffffffffffffffffffffffffffffffffffffffff16815250908060018154018082558091505060019003905f5260205f2090600202015f909190919091505f820151815f019081610253919061089a565b506020820151816001015f6101000a81548173ffffffffffffffffffffffffffffffffffffffff021916908373ffffffffffffffffffffffffffffffffffffffff160217905550505050565b5f81815481106102ad575f80fd5b905f5260205f2090600202015f91509050805f0180546102cc906106cd565b80601f01602080910402602001604051908101604052809291908181526020018280546102f8906106cd565b80156103435780601f1061031a57610100808354040283529160200191610343565b820191905f5260205f20905b81548152906001019060200180831161032657829003601f168201915b505050505090806001015f9054906101000a900473ffffffffffffffffffffffffffffffffffffffff16905082565b5f604051905090565b5f80fd5b5f80fd5b5f819050919050565b61039581610383565b811461039f575f80fd5b50565b5f813590506103b08161038c565b92915050565b5f602082840312156103cb576103ca61037b565b5b5f6103d8848285016103a2565b91505092915050565b5f81519050919050565b5f82825260208201905092915050565b5f5b838110156104185780820151818401526020810190506103fd565b5f8484015250505050565b5f601f19601f8301169050919050565b5f61043d826103e1565b61044781856103eb565b93506104578185602086016103fb565b61046081610423565b840191505092915050565b5f73ffffffffffffffffffffffffffffffffffffffff82169050919050565b5f6104948261046b565b9050919050565b6104a48161048a565b82525050565b5f6040820190508181035f8301526104c28185610433565b90506104d1602083018461049b565b9392505050565b6104e181610383565b82525050565b5f6020820190506104fa5f8301846104d8565b92915050565b5f80fd5b5f80fd5b7f4e487b71000000000000000000000000000000000000000000000000000000005f52604160045260245ffd5b61053e82610423565b810181811067ffffffffffffffff8211171561055d5761055c610508565b5b80604052505050565b5f61056f610372565b905061057b8282610535565b919050565b5f67ffffffffffffffff82111561059a57610599610508565b5b6105a382610423565b9050602081019050919050565b828183375f83830152505050565b5f6105d06105cb84610580565b610566565b9050828152602081018484840111156105ec576105eb610504565b5b6105f78482856105b0565b509392505050565b5f82601f83011261061357610612610500565b5b81356106238482602086016105be565b91505092915050565b5f602082840312156106415761064061037b565b5b5f82013567ffffffffffffffff81111561065e5761065d61037f565b5b61066a848285016105ff565b91505092915050565b7f4e487b71000000000000000000000000000000000000000000000000000000005f52603260045260245ffd5b7f4e487b71000000000000000000000000000000000000000000000000000000005f52602260045260245ffd5b5f60028204905060018216806106e457607f821691505b6020821081036106f7576106f66106a0565b5b50919050565b5f819050815f5260205f209050919050565b5f6020601f8301049050919050565b5f82821b905092915050565b5f600883026107597fffffffffffffffffffffffffffffffffffffffffffffffffffffffffffffffff8261071e565b610763868361071e565b95508019841693508086168417925050509392505050565b5f819050919050565b5f61079e61079961079484610383565b61077b565b610383565b9050919050565b5f819050919050565b6107b783610784565b6107cb6107c3826107a5565b84845461072a565b825550505050565b5f90565b6107df6107d3565b6107ea8184846107ae565b505050565b5b8181101561080d576108025f826107d7565b6001810190506107f0565b5050565b601f82111561085257610823816106fd565b61082c8461070f565b8101602085101561083b578190505b61084f6108478561070f565b8301826107ef565b50505b505050565b5f82821c905092915050565b5f6108725f1984600802610857565b1980831691505092915050565b5f61088a8383610863565b9150826002028217905092915050565b6108a3826103e1565b67ffffffffffffffff8111156108bc576108bb610508565b5b6108c682546106cd565b6108d1828285610811565b5f60209050601f831160018114610902575f84156108f0578287015190505b6108fa858261087f565b865550610961565b601f198416610910866106fd565b5f5b8281101561093757848901518255600182019150602085019450602081019050610912565b868310156109545784890151610950601f891682610863565b8355505b6001600288020188555050505b50505050505056fea264697066735822122005c1b34f7059a864b6274f5870009aed22ae7b5a7bb12d0abd37970fcb4b1a1664736f6c63430008150033",
  "immutableReferences": {},
  "source": "// SPDX-License-Identifier: MIT\r\npragma solidity ^0.8.0;\r\n\r\ncontract FileStorage {\r\n\r\n    struct File {\r\n        string ipfsHash;\r\n        address owner;\r\n    }\r\n\r\n    File[] public files;\r\n\r\n    function uploadFile(string memory _hash) public {\r\n        files.push(File(_hash, msg.sender));\r\n    }\r\n\r\n    function getFile(uint index) public view returns(string memory, address){\r\n        return (files[index].ipfsHash, files[index].owner);\r\n    }\r\n\r\n    function getCount() public view returns(uint){\r\n        return files.length;\r\n    }\r\n}",
  "sourcePath": "C:\\Users\\tejut\\Desktop\\secure-file-share\\contracts\\FileStorage.sol",
  "compiler": {
    "name": "solc",
    "version": "0.8.21+commit.d9974bed.Emscripten.clang"
  },
  "schemaVersion": "3.4.16",
  "updatedAt": "2026-05-02T06:12:40.845Z",
  "devdoc": {
    "kind": "dev",
    "methods": {},
    "version": 1
  },
  "userdoc": {
    "kind": "user",
    "methods": {},
    "version": 1
  }
}